S0170000656E67693232303370726F6A6563742E73726563AC
S11300000C9475000C9492000C9492000C94920041
S11300100C9492000C9492000C9492000C94920014
S11300200C9492000C9492000C94120A0C94E00329
S11300300C945A0A0C94D7090C9492000C949200D4
S11300400C94EA080C9492000C9492000C94920084
S11300500C9492000C9492000C9492000C949200D4
S11300600C9492000C94920007634236B79BD8A775
S11300701A39685618AEBAAB558C1D3CB7CC5763C9
S1130080BD6DEDFD753EF6177231BF000000803F77
S113009008000000BE922449123EABAAAA2ABECD93
S11300A0CCCC4C3E00000080BEABAAAAAA3E000005
S11300B00000BF000000803F0000000000084178FD
S11300C0D3BB4387D1133D190E3CC3BD4282AD2B34
S11300D03E68EC8276BED98FE1A93E4C80EFFFBE2C
S11300E001C4FF7F3F000000000011241FBECFEFBA
S11300F0D8E0DEBFCDBF13E0A0E0B1E0E2EEF2E273
S113010002C005900D92A03CB107D9F724E0A0EC01
S1130110B3E001C01D92AA31B207E1F70E9498032F
S11301200C946F110C940000CF93DF938FED91E04A
S11301300E944F0EC8EDD3E088811F928F9387EF02
S113014091E09F938F930E94390E8BED93E09F93E0
S11301508F938A818F9389818F938FE092E09F930D
S11301608F930E94390E8AE091E09F938F9388E3E6
S113017092E09F938F930E94390E85EE93E09F93B4
S11301808F938C858F938B858F9382E592E09F93D9
S11301908F930E94390E85E091E09F938F938BE7B4
S11301A092E09F938F930E94390E8FEE93E09F937A
S11301B08F938E898F938D898F9385E992E09F9396
S11301C08F930E94390E80E091E09F938F938EEB82
S11301D092E09F938F930E94390E8DB79EB78296BB
S11301E00FB6F8949EBF0FBE8DBFDF91CF910895D7
S11301F00F931F93CF93DF93CDB7DEB76F970FB6EF
S1130200F894DEBF0FBECDBF8AE289836AE071E055
S1130210CE0104960E94320E04E010E01B830A8390
S113022065E071E0CE010E960E94320E1D870C87A8
S113023060E071E0CE0148960E94320E1F8B0E8B57
S11302404FE150E06CE070E0CE0101960E94201175
S11302508FE1FE013196A8EDB3E001900D928A95ED
S1130260E1F76F960FB6F894DEBF0FBECDBFDF91F6
S1130270CF911F910F910895CF93DF93CDB7DEB740
S11302806F970FB6F894DEBF0FBECDBF8FB34FE1AB
S113029050E06CE070E0CE0101960E94101189815B
S11302A08A3239F088ED92E00E944F0E0E94F800E5
S11302B00DC08EEE92E00E944F0E8FE1FE0131964A
S11302C0A8EDB3E001900D928A95E1F70E949400A5
S11302D06F960FB6F894DEBF0FBECDBFDF91CF91FE
S11302E008954FE150E06CE070E088ED93E00E94E7
S11302F0201189E093E00E944F0E08956BED73E0A6
S11303000E94320E8091D9039091DA0308950F93DD
S11303101F93CF93DF93C82FD92F8B01682F792F89
S11303208BED93E00E94320E1093DA030093D9030D
S1130330DF93CF9381E293E09F938F930E94390ED2
S11303400F900F900F900F90DF91CF911F910F910D
S1130350089565EE73E00E94320E8091E30390915C
S1130360E40308950F931F93CF93DF93C82FD92FDE
S11303708B01682F792F85EE93E00E94320E109343
S1130380E4030093E303DF93CF9381E393E09F932C
S11303908F930E94390E0F900F900F900F90DF9162
S11303A0CF911F910F9108956FEE73E00E94320E6A
S11303B08091ED039091EE0308950F931F93CF93D3
S11303C0DF93C82FD92F8B01682F792F8FEE93E0FD
S11303D00E94320E1093EE030093ED03DF93CF934C
S11303E081E493E09F938F930E94390E0F900F90B6
S11303F00F900F90DF91CF911F910F910895259841
S113040083B185FB882780F990E00895CF93DF932B
S1130410CDB7DEB768970FB6F894DEBF0FBECDBF79
S113042085B1807F85B98BB1806E8BB9CE01019681
S11304300E947E01CE0109960E94A901CE01419637
S11304400E94D401BE016F5F7F4F8EE191E00E9454
S1130450320EBE01675F7F4F89E191E00E94320E48
S1130460BE016F5E7F4F84E191E00E94320E689678
S11304700FB6F894DEBF0FBECDBFDF91CF910895C4
S11304809C0194B1907F94B92115310511F4239AFC
S113049008952130310511F4229A0895223031054E
S11304A011F4219A0895209A08954F9B07C04E9BFA
S11304B008C04D9B09C080E090E0089581E090E081
S11304C0089582E090E0089583E090E008950F930A
S11304D01F93CF93DF930E9440090091C0031091B2
S11304E0C1032091C2033091C303DC01CB01801B03
S11304F0910BA20BB30B883C9105A105B105C0F18A
S11305000E9440096093C0037093C1038093C203A7
S11305109093C303C0E0D0E0CE010E94400285E086
S113052090E00E948E090E9455020097D9F09E0126
S1130530220F331FC20FD31FC80FD91FC858DC4F57
S1130540C8811F92CF9381E593E09F938F930E947C
S1130550390E82E390E00E9462040F900F900F9096
S11305600F9007C02196C430D105B1F6C0E001C098
S1130570C0E08C2FDF91CF911F910F9108951092BD
S1130580C5031092C40308951092C7031092C603C2
S113059088E0E7EFF3E0DF011D928A95E9F708951B
S11305A0CF930E946702C82F8091C6039091C7031E
S11305B0089714F00E94C402CA3229F40E94C402AB
S11305C080E090E021C0C33241F48091C603909151
S11305D0C703181619069CF002C0CC2399F0809129
S11305E0C6039091C703FC01E950FC4FC0830196F8
S11305F09093C7038093C60380E090E005C081E038
S113060090E002C080E090E0CF91089567EF73E03E
S11306100E94320E8091C6039091C7030895CF9330
S1130620DF930E946702C82F8091C6039091C7038D
S1130630089714F00E94C402CA3229F40E94C4022A
S113064080E090E072C0C33209F05BC06EE171E0FB
S113065087EF93E00E94290E892B39F481E693E019
S11306600E944F0EC1E0D0E03AC069E171E087EF2B
S113067093E00E94290E892B39F487E693E00E94C7
S11306804F0EC2E0D0E02BC064E171E087EF93E04D
S11306900E94290E892B39F48DE693E00E944F0EB7
S11306A0C3E0D0E01CC06FE071E087EF93E00E94EC
S11306B0290E892B39F483E793E00E944F0EC4E09E
S11306C0D0E00DC0C1E0D0E08091C6039091C70393
S11306D0892B11F0C0E0D0E0D195C195D10980916A
S11306E0C4039091C50301969093C5038093C403FA
S11306F0059714F0C0E0D0E00E94C4028C2F9D2F17
S113070014C0CC2381F08091C6039091C703FC01EF
S1130710E950FC4FC08301969093C7038093C603AE
S113072080E090E002C080E090E0DF91CF910895F6
S11307300E94C3090E943C010E9406020E942409EF
S113074087B18F6187B9109200041092FF038091E2
S1130750FF0390910004892B11F40E94B00680914C
S1130760FF0390910004019711F40E94EE0680911A
S1130770FF0390910004029711F40E942B078091CB
S1130780FF0390910004039711F40E94570780918E
S1130790FF0390910004049711F40E94B007809124
S11307A0FF0390910004059711F40E94BF07809104
S11307B0FF0390910004069751F60E94FF07C7CFEC
S11307C01F920F920FB60F9211242F933F938F9382
S11307D09F938091D0039091D103892B11F0459A76
S11307E001C045982091D0033091D10381E090E07D
S11307F0232B11F080E090E09093D1038093D003F9
S113080010928500109284009F918F913F912F91B7
S11308100F900FBE0F901F901895BC01990F880B75
S1130820990B0E94820B9B01AC0160E070E080E8B0
S11308309FE30E94D80A20E034E244E759E40E948E
S1130840370C9B01AC010E94670A0E944A0B70930B
S11308508900609388008FEF86BB3D9A80E288B957
S1130860109280008AE08093810082E080936F0080
S113087010928500109284000895109281003D9892
S113088045980895181619065CF420E030E045E018
S11308904A95F1F700002F5F3F4F82179307B9F78E
S11308A00895181619066CF420E030E0EFE9FFE033
S11308B03197F1F700C000002F5F3F4F8217930775
S11308C0A9F708958F929F92AF92BF92CF92DF9231
S11308D0EF92FF92CF936C013D9A0E9440094B0125
S11308E05C010D2C000CEE08FF08C0E209C088B1C1
S11308F08C2788B98FEC97E00197F1F700C00000CE
S11309000E944009DC01CB0188199909AA09BB0995
S11309108C159D05AE05BF0550F3CF91FF90EF9068
S1130920DF90CF90BF90AF909F908F900895EF92FB
S1130930FF920F931F93CF93DF931616170674F449
S11309407B018C01C0E0D0E0C8010E946204C801B0
S11309500E9451042196EC16FD06B1F7DF91CF9168
S11309601F910F91FF90EF9008958F929F92AF92F5
S1130970BF92CF92DF92EF92FF921F93CF93DF93B8
S1130980EC016B013D9A0E9440094B015C01BE01E0
S1130990DD0F880B990B0E94820B9B01AC0160E078
S11309A070E080E89FE30E94D80A20E034E244E744
S11309B059E40E94370C20E030E040E05FE30E94FD
S11309C0370C0E944A0BEB010D2C000CEE08FF08BB
S11309D010E206C088B1812788B9CE010E94420482
S11309E00E944009DC01CB0188199909AA09BB09B5
S11309F08C159D05AE05BF0568F345983D98DF91BC
S1130A00CF911F91FF90EF90DF90CF90BF90AF9068
S1130A109F908F900895CF92DF92EF92FF92FC0106
S1130A203081618170E080918701381749F0E8E8EE
S1130A30F1E080E090E0019621913213FCCF02C0F6
S1130A4080E090E0880F991F880F991FFC01ED56F4
S1130A50FE4FC080D180E280F38064537109072E79
S1130A60000C880B990B0E94820B9B01AC0160E087
S1130A7070E080E090E40E94A40C9B01AC01C701EB
S1130A80B6010E94370C0E944A0BCB01FF90EF90F5
S1130A90DF90CF9008954F925F926F927F92AF92C2
S1130AA0BF92CF92DF92EF92FF920F931F93CF9357
S1130AB0DF936091230170912401072E000C880BB1
S1130AC0990B0E94820B9B01AC0160E070E080E70F
S1130AD092E40E94D80A20E030E040E850E40E940A
S1130AE0370C2B013C016894AA24A1F8B12C35C021
S1130AF06A817B81072E000C880B990B0E94820B64
S1130B009B01AC01C301B2010E94D80A20E030E08D
S1130B104AE754E40E94370C20E030E040E05FE311
S1130B200E94370C0E944A0B6B017C01CE010E948B
S1130B300B05B6010E94B504C6010E9451040F5F63
S1130B401F4F2496809125019091260108171907BB
S1130B507CF281E0A81AB10861F08091250190919E
S1130B60260118161906ACF7C7E2D1E000E010E040
S1130B70BFCFDF91CF911F910F91FF90EF90DF9046
S1130B80CF90BF90AF907F906F905F904F900895FB
S1130B901092CF031092CE0381E090E09093CD03A6
S1130BA08093CC0308950E943D0408958F929F92F0
S1130BB0AF92BF92CF92DF92EF92FF920F931F9367
S1130BC0CF93DF93C091CE03D091CF03C831D10529
S1130BD01CF00E94C805B7C06091230170912401E4
S1130BE0072E000C880B990B0E94820B9B01AC0111
S1130BF060E070E080E792E40E94D80A20E030E0F0
S1130C0040E850E40E94370C6B017C01CC0FDD1FDF
S1130C10CC0FDD1FC95DDE4F6A817B81072E000C7E
S1130C20880B990B0E94820B9B01AC01C701B60192
S1130C300E94D80A20E030E04AE754E40E94370CCE
S1130C406B017C010E9440090091C8031091C90303
S1130C502091CA033091CB03601B710B820B930B61
S1130C600E94800B9B01AC01C701B6010E94D30A0C
S1130C70882314F58091CE039091CF03019690932D
S1130C80CF038093CE030E9440096093C8037093FE
S1130C90C9038093CA039093CB038091CE039091B0
S1130CA0CF03880F991F880F991F895D9E4F0E945B
S1130CB00B050E940D0447C00E9440090091C8031F
S1130CC01091C9032091CA033091CB03601B710BAF
S1130CD0820B930B0E94800B4B015C0120E030E0FF
S1130CE040E05FE3C701B6010E94370C9B01AC01F1
S1130CF0C501B4010E94320C18161CF40E943D0474
S1130D0022C08091CC039091CD03892BE1F00E9405
S1130D1040096093C8037093C9038093CA039093F6
S1130D20CB031092CD031092CC038091CE0390910B
S1130D30CF03880F991F880F991F895D9E4F0E94CA
S1130D400B050E940D04DF91CF911F910F91FF902D
S1130D50EF90DF90CF90BF90AF909F908F900895C9
S1130D60409A88B1817E88B90E94FF01892B61F085
S1130D708091D6039091D703892B31F485E090E0DC
S1130D80909300048093FF030E94BF020E940F030C
S1130D908F3F2FEF920739F481E090E090930004A5
S1130DA08093FF0308958230910579F481E090E007
S1130DB02091D6033091D703232B11F080E090E0EB
S1130DC09093D7038093D6030895049731F486E073
S1130DD090E0909300048093FF0308951F93CF93B2
S1130DE0DF930E944909C8ECD0E011E01BC0BE01AA
S1130DF00D2E000C880B990B0E945209892B49F087
S1130E0088B1812788B982E390E00E946204C853C4
S1130E10DF4F0E940F03019629F4109200041092F0
S1130E20FF0315C06FE070E080E090E00E94690964
S1130E30892BE9F263E070E082E390E00E9497047A
S1130E4082E090E0909300048093FF034098DF9148
S1130E50CF911F910895419A4C9B06C083E090E086
S1130E60909300048093FF030E94FF01892B61F09B
S1130E708091D6039091D703892B31F485E090E0DB
S1130E80909300048093FF030E940F038130910527
S1130E9029F4109200041092FF030895039731F48B
S1130EA084E090E0909300048093FF0308951F93DF
S1130EB0CF93DF93419880E090E00E944909C8EC09
S1130EC0D0E014E039C0BE010D2E000C880B990B44
S1130ED00E945209892B29F088B1812788B9C85307
S1130EE0DF4F0E940F038130910529F41092000412
S1130EF01092FF0331C0039739F484E090E090939B
S1130F0000048093FF0328C08091FF0390910004A4
S1130F108B7F892B09F10E94FF01892B69F0809155
S1130F20D6039091D703892B39F485E090E0909310
S1130F3000048093FF0310C06EE170E080E090E055
S1130F400E946909892B09F4BECF429885E090E09C
S1130F50909300048093FF03DF91CF911F91089534
S1130F6088B1817F88B988B1816188B90E940F03F3
S1130F70019721F4109200041092FF0308958091C8
S1130F80D4039091D503892B41F40E94C80581E0D4
S1130F9090E09093D5038093D40388B1887E88B978
S1130FA062E370E080E090E00E945209892B31F006
S1130FB00E94490998B188E0892788B90E94D6051A
S1130FC00E940F038130910559F41092000410928D
S1130FD0FF031092D5031092D4030E94D305089501
S1130FE0039761F484E090E0909300048093FF03FE
S1130FF01092D5031092D4030E94D3050895CF9381
S1131000DF93CDB7DEB728970FB6F894DEBF0FBED7
S1131010CDBF8091D2039091D303009709F04AC0C9
S113102064EF71E080E090E00E945209892B31F076
S11310300E94490998B181E0892788B90E94670212
S1131040813339F481E090E09093D3038093D20309
S1131050B8C0823339F482E090E09093D303809354
S1131060D203AFC0833339F483E090E09093D30389
S11310708093D203A6C0843339F484E090E0909343
S1131080D3038093D2039DC0853319F40E944B058A
S113109098C0833209F095C01092D3031092D20302
S11310A0109200041092FF0318B80E9471010E946C
S11310B0060287C08130910511F5409864EF71E014
S11310C080E090E00E945209892B31F00E94490986
S11310D098B182E0892788B90E94D002019709F06B
S11310E070C0CE0101960E940603BC01CE01019698
S11310F00E9487011092D3031092D20362C08230FF
S1131100910511F5409864EF71E080E090E00E9451
S11311105209892B31F00E94490998B184E089274A
S113112088B90E94D002019709F04BC0CE01019604
S11311300E940603BC01CE0101960E94B2011092E6
S1131140D3031092D2033DC08330910509F5409832
S113115064EF71E080E090E00E945209892B31F045
S11311600E94490998B188E0892788B90E94D00271
S1131170019739F5CE0101960E940603BC01CE0108
S113118001960E94DD011092D3031092D20319C07C
S11311900497B9F464EF71E080E090E00E94520992
S11311A0892B29F00E94490988B1809588B90E9449
S11311B06702873331F40E94F8001092D30310922F
S11311C0D20328960FB6F894DEBF0FBECDBFDF91D1
S11311D0CF9108951F920F920FB60F9211248F93FF
S11311E09F93AF93BF938091050490910604A091BF
S11311F00704B09108040196A11DB11D8093050454
S113120090930604A0930704B0930804809101040A
S113121090910204A0910304B09104040196A11DCD
S1131220B11D8093010490930204A0930304B0932E
S1131230040480EF86BDBF91AF919F918F910F9071
S11312400FBE0F901F901895EEE6F0E0808181604C
S1131250808380EF86BD14BC85E085BD10920504B3
S113126010920604109207041092080410920104CC
S113127010920204109203041092040478940895C6
S1131280609105047091060480910704909108040C
S11312900895109201041092020410920304109213
S11312A0040408950F931F93009101041091020404
S11312B0209103043091040441E050E06017710769
S11312C08207930710F040E050E0CA011F910F918C
S11312D00895CF92DF92EF92FF920E94800B20E05C
S11312E030E04AE754E40E94370CC0900104D090E7
S11312F00204E0900304F09004040E94510B21E0E6
S113130030E06C157D058E059F0510F020E030E07F
S1131310C901FF90EF90DF90CF9008950F931F9332
S113132000910504109106042091070430910804EB
S1131330092E000CAA0BBB0B409105045091060426
S11313406091070470910804401B510B620B730BEE
S1131350481759076A077B0778F31F910F9108957F
S1131360E0ECF0E0908195FFFDCF8093C60080E033
S113137090E00895E0ECF0E080818823ECF7809120
S1131380C60090E0089588E18093C10087E690E06C
S11313909093C5008093C400E4E1F4E081ED91E012
S11313A09383828383EC91E09183808308951F92D9
S11313B00F920FB60F9211242F933F934F935F9385
S11313C06F937F938F939F93AF93BF93EF93FF9309
S11313D080910B0490910C04029730F010926F00EE
S11313E01092810010920D0485E893E00E944F0E44
S11313F080910B0490910C04019690930C048093BB
S11314000B04FF91EF91BF91AF919F918F917F91C9
S11314106F915F914F913F912F910F900FBE0F905D
S11314201F9018951F920F920FB60F9211242F93AD
S11314303F934F935F936F937F938F939F93AF9358
S1131440BF93EF93FF9389E893E00E944F0E80913E
S1131450810086FF09C0E1E8F0E08081826080833A
S113146080818F7B808315C0E4E8F0E080819181E6
S113147090930F0480930E0480910B0490910C04BC
S1131480909311048093100484E080936F00118280
S11314901082FF91EF91BF91AF919F918F917F91B6
S11314A06F915F914F913F912F910F900FBE0F90CD
S11314B01F9018951F920F920FB60F92112410923D
S11314C00D040F900FBE0F901F9018955058BB2716
S11314D0AA270E947E0A0C94F80B0E94EA0B38F0AB
S11314E00E94F10B20F039F49F3F19F426F40C9478
S11314F0E70B0EF4E095E7FB0C94E10BE92F0E9457
S1131500090C58F3BA17620773078407950720F08C
S113151079F4A6F50C942B0C0EF4E0950B2EBA2F4F
S1131520A02D0B01B90190010C01CA01A0011124E5
S1131530FF27591B99F0593F50F4503E68F11A1691
S1131540F040A22F232F342F4427585FF3CF469522
S113155037952795A795F0405395C9F77EF41F1644
S1131560BA0B620B730B840BBAF09150A1F0FF0F0E
S1131570BB1F661F771F881FC2F70EC0BA0F621FFA
S1131580731F841F48F4879577956795B795F795EA
S11315909E3F08F0B0CF9395880F08F09927EE0F7F
S11315A09795879508950E94BD0B08F481E00895EE
S11315B00E94EC0A0C94F80B0E94F10B58F00E9464
S11315C0EA0B40F029F45F3F29F00C94E10B511130
S11315D00C942C0C0C94E70B0E94090C68F39923CF
S11315E0B1F3552391F3951B550BBB27AA2762171B
S11315F07307840738F09F5F5F4F220F331F441F28
S1131600AA1FA9F335D00E2E3AF0E0E832D091505B
S11316105040E695001CCAF72BD0FE2F29D0660F48
S1131620771F881FBB1F261737074807AB07B0E88B
S113163009F0BB0B802DBF01FF2793585F4F3AF091
S11316409E3F510578F00C94E10B0C942C0C5F3FF9
S1131650E4F3983ED4F3869577956795B795F79517
S11316609F5FC9F7880F911D9695879597F90895FF
S1131670E1E0660F771F881FBB1F6217730784079B
S1131680BA0720F0621B730B840BBA0BEE1F88F7AA
S1131690E09508950E94510B6894B1110C942C0CA0
S11316A008950E94110C88F09F5798F0B92F99273C
S11316B0B751B0F0E1F0660F771F881F991F1AF039
S11316C0BA95C9F714C0B13091F00E942B0CB1E067
S11316D008950C942B0C672F782F8827B85F39F066
S11316E0B93FCCF3869577956795B395D9F73EF4D2
S11316F090958095709561957F4F8F4F9F4F08957A
S1131700E89409C097FB3EF4909580957095619597
S11317107F4F8F4F9F4F9923A9F0F92F96E9BB274D
S11317209395F695879577956795B795F111F8CFC9
S1131730FAF4BB0F11F460FF1BC06F5F7F4F8F4F34
S11317409F4F16C0882311F096E911C0772321F02A
S11317509EE8872F762F05C0662371F096E8862FC2
S113176070E060E02AF09A95660F771F881FDAF719
S1131770880F9695879597F90895990F0008550F46
S1131780AA0BE0E8FEEF16161706E807F907C0F003
S113179012161306E407F50798F0621B730B840B0B
S11317A0950B39F40A2661F0232B242B252B21F4E5
S11317B008950A2609F4A140A6958FEF811D811D85
S11317C0089597F99F6780E870E060E008959FEFBF
S11317D080EC089500240A941616170618060906C4
S11317E0089500240A941216130614060506089593
S11317F0092E0394000C11F4882352F0BB0F40F41B
S1131800BF2B11F460FF04C06F5F7F4F8F4F9F4F5A
S1131810089557FD9058440F551F59F05F3F71F0DC
S11318204795880F97FB991F61F09F3F79F0879543
S11318300895121613061406551FF2CF4695F1DFCC
S113184008C0161617061806991FF1CF869571055C
S1131850610508940895E894BB2766277727CB0190
S113186097F908950E94BD0B08F48FEF08950E9424
S11318704A0C0C94F80B0E94EA0B38F00E94F10B0E
S113188020F0952311F00C94E10B0C94E70B112438
S11318900C942C0C0E94090C70F3959FC1F3950FC6
S11318A050E0551F629FF001729FBB27F00DB11DE0
S11318B0639FAA27F00DB11DAA1F649F6627B00D70
S11318C0A11D661F829F2227B00DA11D621F739F59
S11318D0B00DA11D621F839FA00D611D221F749F67
S11318E03327A00D611D231F849F600D211D822FAE
S11318F0762F6A2F11249F5750409AF0F1F08823D5
S11319004AF0EE0FFF1FBB1F661F771F881F915001
S11319105040A9F79E3F510580F00C94E10B0C94C4
S11319202C0C5F3FE4F3983ED4F386957795679546
S1131930B795F795E7959F5FC1F7FE2B880F911D2B
S11319409695879597F90895FA01EE0FFF1F309643
S113195021053105A1F16115710561F48038BFE3FA
S11319609B0749F168949038810561F08038BFEF96
S11319709B0741F099234AF5FF3FE1053105210515
S113198019F1E8940894E795D901AA2329F4AB2F17
S1131990BE2FF85FD0F310C0FF5F70F4A695E0F798
S11319A0F73950F019F0FF3A38F49F779F930DD030
S11319B00F9007FC9058089546F00C94E70B60E0F4
S11319C070E080E89FE308954FE79F775F934F931C
S11319D03F932F930E949F0D2F913F914F915F91C1
S11319E00E94370C0C94FC0C29F416F00C94E10BB7
S11319F00C942B0C0C94E70B0E94110CA8F3963852
S1131A00A0F707F80F92E8942BE33AEA48EB5FE774
S1131A100E944D0C0F920F920F924DB75EB70F922A
S1131A200E94E70DE8E6F0E00E942E0D4F915F91D1
S1131A30EF91FF91E595EE1FFF1F49F0FE57E06817
S1131A404427EE0F441FFA95E1F74195550B0E9488
S1131A50610D0F9007FE0C94550D0895DF93CF93FD
S1131A601F930F93FF92EF92DF927B018C01689496
S1131A7006C0DA2EEF010E944A0CFE01E894A591FB
S1131A802591359145915591A6F3EF010E947E0A67
S1131A90FE019701A801DA9469F7DF90EF90FF90B7
S1131AA00F911F91CF91DF9108959B01AC0160E0EC
S1131AB070E080E89FE30C94D80A0C94E10B0C943A
S1131AC01B0E0E94110CD8F39923C9F3940F511DD6
S1131AD0A3F39150504094F059F0882332F0660FEC
S1131AE0771F881F91505040C1F79E3F51052CF736
S1131AF0880F911D9695879597F908955F3FACF0EF
S1131B00983E9CF0BB27869577956795B79508F422
S1131B10B1609395C1F7BB0F58F711F460FFE8CF9C
S1131B206F5F7F4F8F4F9F4FE3CF0C942C0C16F0B9
S1131B300C941B0E0C94E70B68940C94E10B0E941C
S1131B40110CA8F39923C1F3AEF3DF93CF931F9342
S1131B500F93FF92C92FDD2788232AF02197660F60
S1131B60771F881FDAF720E030E040E85FEB9FE35F
S1131B70883920F0803E38F021968F770E94670ADA
S1131B80E0E9F0E004C00E94670AEDEBF0E00E9497
S1131B902E0D8B01BE01EC01FB2E6F57710975955B
S1131BA0771F880B990B0E94820B28E132E741E3EF
S1131BB05FE30E944A0CAF2D9801AE01FF900F9194
S1131BC01F91CF91DF910E947E0A0C94F80BFA01C9
S1131BD0DC01AA0FBB1F9B01AC01BF5728F42227CD
S1131BE033274427507820C0B75190F4AB2F0024FA
S1131BF0469537952795011CA395D2F3002071F0E3
S1131C00220F331F441FB395DAF30ED00C94660AE7
S1131C1061307105A0E88A07B94630F49B01AC0134
S1131C206627772788279078309621F020833183A0
S1131C304283538308959F3F31F0915020F4879558
S1131C4077956795B795880F911D9695879597F920
S1131C500895FB01DC018D91019080190110D9F3E5
S1131C60990B0895FB01DC0101900D920020E1F72E
S1131C700895A0E0B0E0EFE3FEE00C944811AE015B
S1131C804B5F5F4FFA0161917191AF01809116042E
S1131C90909117040E947F0EE2E00C9464110F935C
S1131CA01F93CF93DF93E0911604F09117042381DF
S1131CB021FF1BC08C01D0E0C0E0F80181918F01AD
S1131CC06091160470911704DB011896ED91FC9154
S1131CD01997882331F00995892B79F3DFEFCFEF3A
S1131CE0ECCF8AE00995892B19F08FEF9FEF02C0A2
S1131CF08D2F9C2FDF91CF911F910F910895ABE011
S1131D00B0E0E5E8FEE00C9438116C017B018A0137
S1131D10FC0117821682838181FFCCC1CE0101961A
S1131D203C01F6019381F70193FD859193FF819125
S1131D307F01882309F4BAC1853239F493FD859172
S1131D4093FF81917F01853229F4B60190E00E94CE
S1131D507610E7CF912C212C312CFFE1F315D8F02C
S1131D608B3279F038F4803279F08332A1F4232D68
S1131D7020611DC08D3261F0803369F4232D216010
S1131D8016C0832D8260382EE32DE4603E2E2AC0D7
S1131D90F32DF8601DC037FC2DC020ED280F2A302C
S1131DA040F08E32B9F436FC81C1232D2064322EEA
S1131DB019C036FE06C08AE0989E200D1124922E8A
S1131DC011C0EAE02E9E200D1124222EF32DF06284
S1131DD03F2E08C08C3621F4832D8068382E02C033
S1131DE0883641F4F70193FD859193FF81917F013A
S1131DF08111B3CF982F9F7D9554933028F40C5FB5
S1131E001F4F9FE399830DC0833631F0833771F000
S1131E10833509F059C021C0F801808189830E5FA0
S1131E201F4F88248394912C530113C02801F2E09E
S1131E304F0E511CF801A080B18036FE03C0692DFD
S1131E4070E002C06FEF7FEFC5010E946B104C0180
S1131E508201F32DFF773F2E16C0280122E0420EA7
S1131E60511CF801A080B18036FE03C0692D70E0DA
S1131E7002C06FEF7FEFC5010E9460104C01F32D8B
S1131E80F0683F2E820133FC1BC0822D90E088163F
S1131E909906B0F4B60180E290E00E9476102A948C
S1131EA0F4CFF50137FC859137FE81915F01B601CE
S1131EB090E00E94761021102A9421E0821A910861
S1131EC08114910471F7E8C0843611F0893641F524
S1131ED0F80137FE07C060817181828193810C5FB4
S1131EE01F4F08C060817181072E000C880B990B6D
S1131EF00E5F1F4FF32DFF763F2E97FF09C090957D
S1131F008095709561957F4F8F4F9F4FF0683F2E5E
S1131F102AE030E0A3010E94B210882E861845C042
S1131F20853731F4232D2F7EB22E2AE030E025C0F0
S1131F30932D997FB92E8F36C1F018F4883579F036
S1131F40B5C0803719F0883721F0B0C0E92FE061BF
S1131F50BE2EB4FE0DC0FB2DF460BF2E09C034FEAE
S1131F600AC0292F2660B22E06C028E030E005C042
S1131F7020E130E002C020E132E0F801B7FE07C002
S1131F8060817181828193810C5F1F4F06C06081E3
S1131F90718180E090E00E5F1F4FA3010E94B21098
S1131FA0882E8618FB2DFF773F2E36FE0DC0232D7D
S1131FB02E7FA22E891458F434FE0BC032FC09C0C3
S1131FC0832D8E7EA82E05C0B82CA32C03C0B82C5C
S1131FD001C0B92CA4FE0FC0FE01E80DF11D8081E3
S1131FE0803321F49A2D997EA92E09C0A2FE06C041
S1131FF0B394B39404C08A2D867809F0B394A3FCF7
S113200011C0A0FE06C0B21488F4280C922C9B18B0
S11320100EC0B21460F4B60180E290E00E94761023
S1132020B394F7CFB21418F42B1802C0982C212CB7
S1132030A4FE10C0B60180E390E00E947610A2FED8
S113204017C0A1FC03C088E790E002C088E590E0D7
S1132050B6010CC08A2D867859F0A1FE02C08BE22D
S113206001C080E2A7FC8DE2B60190E00E947610E8
S1132070891438F4B60180E390E00E9476109A94B3
S1132080F7CF8A94F301E80DF11D8081B60190E049
S11320900E9476108110F5CF222009F442CEB601B9
S11320A080E290E00E9476102A94F6CFF6018681B1
S11320B0978102C08FEF9FEF2B96E2E10C945411AD
S11320C0FC010590615070400110D8F780959095FF
S11320D08E0F9F1F0895FC01615070400190011004
S11320E0D8F7809590958E0F9F1F08950F931F9397
S11320F0CF93DF93FB01238121FD03C08FEF9FEF7B
S11321002CC022FF16C04681578124813581421795
S1132110530744F4A081B1819D012F5F3F4F318368
S113212020838C93268137812F5F3F4F378326830B
S113213014C08B01EC01FB010084F185E02D0995AD
S1132140892BE1F6D80116968D919C9117970196EB
S113215017969C938E931697CE01DF91CF911F9182
S11321600F910895FA01AA27283051F1203181F105
S1132170E8946F936E7F6E5F7F4F8F4F9F4FAF4F8B
S1132180B1E03ED0B4E03CD0670F781F891F9A1F9E
S1132190A11D680F791F8A1F911DA11D6A0F711D52
S11321A0811D911DA11D20D009F468943F912AE05E
S11321B0269F11243019305D3193DEF6CF01089546
S11321C0462F4770405D4193B3E00FD0C9F7F6CF77
S11321D0462F4F70405D4A3318F0495D31FD40523F
S11321E0419302D0A9F7EACFB4E0A69597958795D5
S11321F077956795BA95C9F70097610571050895B4
S11322009B01AC010A2E069457954795379527955F
S1132210BA95C9F7620F731F841F951FA01D0895F7
S1132220DC01CB01FC01F999FECF06C0F2BDE1BD92
S1132230F89A319600B40D9241505040B8F7089581
S1132240DC01CB0103C02D910E942B114150504061
S1132250D0F70895262FF999FECF1FBA92BD81BDFC
S113226020BD0FB6F894FA9AF99A0FBE0196089514
S11322702F923F924F925F926F927F928F929F9292
S1132280AF92BF92CF92DF92EF92FF920F931F9380
S1132290CF93DF93CDB7DEB7CA1BDB0B0FB6F89431
S11322A0DEBF0FBECDBF09942A88398848885F8471
S11322B06E847D848C849B84AA84B984C884DF80E2
S11322C0EE80FD800C811B81AA81B981CE0FD11DC6
S11322D00FB6F894DEBF0FBECDBFED010895F8949C
S10522E0FFCF2A
S11322E23432303200313233340036393639003147
S11322F23131310034323032003132333400363944
S1132302363900A90018006635080066350800440D
S113231235080042350400423504004535040045C1
S11323223504004535080067350800673508004163
S1132332360800423608004136080041360800419A
S11323423608004535040044350400663504006649
S11323523504006635080045350800453508006631
S113236235080045350800416142436344644546EB
S11323726647670000DC437B14E943A4F0F643009C
S1132382D00244AE970A441FD5124400901B440065
S1132392D02444719D2E445CFF38445CFF43440ABC
S11323A2A74F4400000001000000000000BA090029
S11323B2000000000200000000B009000000004913
S11323C26E207374727563742063757272656E74B1
S11323D2436F6465732C0054686520706C61636597
S11323E2686F6C6465722069732025630A0A00545D
S11323F2686520647061737320686173206C656E14
S1132402677468202564207769746820636F6E742A
S1132412656E742025730A005468652064656661DC
S1132422756C742064706173732069732025730A58
S11324320A005468652063706173732068617320B5
S11324426C656E67746820256420776974682063FC
S11324526F6E74656E742025730A00546865206477
S1132462656661756C74206370617373206973208F
S113247225730A0A005468652070706173732068BA
S11324826173206C656E67746820256420776974B3
S11324926820636F6E74656E742025730A00546835
S11324A2652064656661756C742070706173732055
S11324B269732025730A0A004661696C6564207495
S11324C26F206C6F616420636F64657321005375C0
S11324D2636365737366756C6C79206C6F61646594
S11324E26420636F6465732100436F6465732077AE
S11324F272697474656E20746F20454550524F4D55
S11325020044504153532053657420746F20257343
S11325120043504153532053657420746F20257334
S11325220050504153532053657420746F20257317
S1132532004B657920256320707265737365640AA4
S1132542006470617373006370617373007070610F
S1132552737300617061737300313233343536370B
S113256238392A30236F7666004563686F206D65BB
S11325726173004D6561737572696E6720556C7481
S11325827261736F6E69632052616E676572004493
S1132592697374616E63652069732025640A00009F
S9030000FC
