:100000000C9434000C9451000C9451000C94510049
:100010000C9451000C9451000C9451000C9451001C
:100020000C9451000C9451000C9451000C9420023B
:100030000C9451000C9451000C9451000C945100FC
:100040000C9451000C9451000C9451000C945100EC
:100050000C9451000C9451000C9451000C945100DC
:100060000C9451000C94510011241FBECFEFD8E026
:10007000DEBFCDBF11E0A0E0B1E0EAE3F5E002C0F1
:1000800005900D92AC33B107D9F721E0ACE3B1E0B4
:1000900001C01D92A235B207E1F70E9428010C941D
:1000A0009B020C94000085B1807F85B98BB1806E76
:1000B0008BB908959C0194B1907F94B921153105B5
:1000C00011F4239A08952130310511F4229A0895EC
:1000D0002230310511F4219A0895209A08954F9BFA
:1000E00007C04E9B08C04D9B09C080E090E008957A
:1000F00081E090E0089582E090E0089583E090E050
:100100000895CF93DF93C0E0D0E0CE010E945A0063
:1001100087E893E10197F1F700C000000E946F00AB
:10012000009759F09E01220F331FC20FD31FC80F33
:10013000D91FCD5EDE4F888104C02196C430D10521
:1001400021F7DF91CF9108950E94810090913C01A9
:10015000891719F080933C01089580E008958A3250
:1001600069F410923E0110923D01EFE0F1E08083CE
:1001700081838283838380E090E00895882371F0F7
:1001800020913D0130913E01F901E15FFE4F8083F6
:100190002F5F3F4F30933E0120933D0180913D0101
:1001A00090913E01049709F050C06AE071E08FE041
:1001B00091E00E949202892B71F4EFE0F1E08AE273
:1001C000808381838283838310923E0110923D015C
:1001D00081E090E0089565E071E08FE091E00E9499
:1001E0009202892B71F4EFE0F1E08AE2808381834F
:1001F0008283838310923E0110923D0182E090E061
:10020000089560E071E08FE091E00E949202892BF6
:1002100071F4EFE0F1E08AE280838183828383835B
:1002200010923E0110923D0183E090E00895EFE0CE
:10023000F1E08AE2808381838283838310923E018E
:1002400010923D0180E090E0089580E090E00895F4
:100250000E9453000E94450280E090E00E945E02EE
:100260000E947E0287B18FEF87B9109247011092EA
:1002700046018091460190914701892B11F40E941B
:100280006A018091460190914701019711F40E9403
:1002900088018091460190914701029711F40E94D4
:1002A000B5018091460190914701039711F40E9496
:1002B000BF018091460190914701049711F40E947B
:1002C0001A028091460190914701059791F60E948C
:1002D0001E02CFCF409A0E94A400833239F481E0FD
:1002E00090E090934701809346010895882379F028
:1002F00099270E94AF00029731F481E090E090933B
:1003000043018093420110924101109240010895EF
:10031000CF9380E090E00E945E021092450110921F
:100320004401C1E014C00E94530220914401309165
:100330004501821B930B883C910548F088B18C27BE
:1003400088B90E94530290934501809344010E9412
:1003500053028838934138F382E090E0909347014C
:10036000809346014098CF910895419A4C9B06C0D6
:1003700083E090E0909347018093460108951F9396
:10038000CF93DF9380E090E00E945E0210924501DF
:100390001092440112E0C4E0D0E036C00E94530243
:1003A0002091440130914501821B930B883C9105BB
:1003B00048F088B1812788B90E9453029093450183
:1003C000809344010E94A40080933F018823A9F0F8
:1003D00099270E94AF008130910529F410924701BE
:1003E0001092460106C0039721F4D0934701C093B1
:1003F0004601109241011092400180914601909176
:1004000047018B7F892B29F00E9453028033954747
:1004100028F28091460190914701039731F485E0DD
:1004200090E090934701809346014198DF91CF91EE
:100430001F91089588B1896088B90895429A0895F6
:100440001F920F920FB60F9211248F939F93AF9329
:10045000BF938091480190914901A0914A01B091C8
:100460004B010196A11DB11D809348019093490154
:10047000A0934A01B0934B01BF91AF919F918F918F
:100480000F900FBE0F901F9018958AEF90E09093F9
:1004900089008093880082E080936F008BE08093D6
:1004A000810078940895F8948091480190914901D1
:1004B000A0914A01B0914B0178940895F894A0E07E
:1004C000B0E08093480190934901A0934A01B09312
:1004D0004B0178940895E0ECF0E0908195FFFDCF1A
:1004E0008093C60080E090E00895E0ECF0E0808129
:1004F0008823ECF78091C60090E0089588E180930E
:10050000C10087E690E09093C5008093C400ECE4BE
:10051000F1E08EE291E09383828380E291E0918327
:1005200080830895FB01DC018D91019080190110F9
:0A053000D9F3990B0895F894FFCF5A
:10053A003432303200313233340036393639002A17
:10054A002A2A2A003132333435363738392A3023C9
:10055A000000000100000000000075020000000019
:0C056A000002000000006B020000000016
:00000001FF
