S0170000656E67693232303370726F6A6563742E73726563AC
S11300000C9434000C9451000C9451000C94510045
S11300100C9451000C9451000C9451000C94510018
S11300200C9451000C9451000C9451000C94250133
S11300300C9451000C9451000C9451000C945100F8
S11300400C9451000C9451000C9451000C945100E8
S11300500C9451000C9451000C9451000C945100D8
S11300600C9451000C94510011241FBECFEFD8E022
S1130070DEBFCDBF11E0A0E0B1E0E4EEF2E002C0EB
S113008005900D92AC30B107D9F721E0ACE0B1E0B6
S113009001C01D92A531B207E1F70E94AF000C9494
S11300A070010C94000085B1807F85B98BB1806E9E
S11300B08BB908959C0194B1907F94B921153105B1
S11300C011F4239A08952130310511F4229A0895E8
S11300D02230310511F4219A0895209A08954F9BF6
S11300E007C04E9B08C04D9B09C080E090E0089576
S11300F081E090E0089582E090E0089583E090E04C
S11301000895CF93DF93C0E0D0E0CE010E945A005F
S113011087E893E10197F1F700C000000E946F00A7
S1130120009759F09E01220F331FC20FD31FC80F2F
S1130130D91FC150DF4F888104C02196C430D10536
S113014021F7DF91CF9108950E94810090910C01D5
S1130150891719F080930C01089580E008950E9496
S113016053000E944A0180E090E00E94630187B13D
S11301708FEF87B91092100110920F0180910F0137
S113018090911001892B11F40E94DF0080910F01DE
S113019090911001019711F40E94EB0080910F01DE
S11301A090911001029711F40E94180180910F019F
S11301B090911001039711F70E942301DFCF409A19
S11301C00E94A400833231F481E090E09093100106
S11301D080930F010895CF9380E090E00E94630123
S11301E010920E0110920D01C1E014C00E9458013A
S11301F020910D0130910E01821B930B883C9105D7
S113020048F088B18C2788B90E94580190930E0158
S113021080930D010E94580188399A4338F382E093
S113022090E09093100180930F014098CF9108952E
S1130230419A4C9B07C083E090E090931001809317
S11302400F0141980895429A08951F920F920FB694
S11302500F9211248F939F93AF93BF9380911101B9
S113026090911201A0911301B09114010196A11D66
S1130270B11D8093110190931201A0931301B093C7
S11302801401BF91AF919F918F910F900FBE0F906A
S11302901F9018958AEF90E09093890080938800CE
S11302A082E080936F008BE08093810078940895BE
S11302B0F8948091110190911201A0911301B091D1
S11302C0140178940895F894A0E0B0E080931101AB
S11302D090931201A0931301B0931401789408959C
S10702E0F894FFCFBC
S10F02E43132333435363738392A3023B0
S9030000FC
