:100000000C9434000C9451000C9451000C94510049
:100010000C9451000C9451000C9451000C9451001C
:100020000C9451000C9451000C9451000C9451000C
:100030000C9451000C9475000C9451000C945100D8
:100040000C9451000C9451000C9451000C945100EC
:100050000C9451000C9451000C9451000C945100DC
:100060000C9451000C94510011241FBECFEFD8E026
:10007000DEBFCDBF11E0A0E0B1E0EEE1F4E002C0F0
:1000800005900D92A030B107D9F721E0A0E0B1E0D2
:1000900001C01D92A430B207E1F70E949A000C94AF
:1000A0000D020C940000409A88B1817F88B90895B0
:1000B000419A88B1827F88B90895429A0895BC0117
:1000C000990F880B990B0E94810120E030E04AEFE4
:1000D00053E40E94D7000E94490161707727672B83
:1000E00011F0439A0895439808951F920F920FB606
:1000F0000F9211248F939F93AF93BF938091000130
:1001000090910101A0910201B09103010196A11DFE
:10011000B11D8093000190930101A0930201B0935F
:100120000301BF91AF919F918F910F900FBE0F90E0
:100130001F90189510920001109201011092020177
:100140001092030181E080936F008093810080EF23
:100150009FEF909385008093840078948FEF84B90B
:1001600087B98091000190910101A0910201B091A5
:100170000301883B2BE09207A105B10518F40E940A
:100180005300EFCF803727E19207A105B10518F49E
:100190000E945800E6CF883223E29207A105B105FC
:1001A00018F40E945D00DDCF0E945F00DACF0E944C
:1001B000EB000C94D3010E94CC0158F00E94C501C1
:1001C00040F029F45F3F29F00C94BC0151110C94CC
:1001D00007020C94C2010E94E40168F39923B1F371
:1001E000552391F3951B550BBB27AA27621773075D
:1001F000840738F09F5F5F4F220F331F441FAA1FF1
:10020000A9F335D00E2E3AF0E0E832D091505040AC
:10021000E695001CCAF72BD0FE2F29D0660F771F5A
:10022000881FBB1F261737074807AB07B0E809F040
:10023000BB0B802DBF01FF2793585F4F3AF09E3FC5
:10024000510578F00C94BC010C9407025F3FE4F375
:10025000983ED4F3869577956795B795F7959F5F08
:10026000C9F7880F911D9695879597F90895E1E054
:10027000660F771F881FBB1F621773078407BA07B3
:1002800020F0621B730B840BBA0BEE1F88F7E0950E
:1002900008950E9450016894B1110C9407020895CA
:1002A0000E94EC0188F09F5798F0B92F9927B75119
:1002B000B0F0E1F0660F771F881F991F1AF0BA950A
:1002C000C9F714C0B13091F00E940602B1E0089560
:1002D0000C940602672F782F8827B85F39F0B93F52
:1002E000CCF3869577956795B395D9F73EF49095BD
:1002F0008095709561957F4F8F4F9F4F0895E8943B
:1003000009C097FB3EF490958095709561957F4F5D
:100310008F4F9F4F9923A9F0F92F96E9BB2793950B
:10032000F695879577956795B795F111F8CFFAF41B
:10033000BB0F11F460FF1BC06F5F7F4F8F4F9F4F4C
:1003400016C0882311F096E911C0772321F09EE8AA
:10035000872F762F05C0662371F096E8862F70E010
:1003600060E02AF09A95660F771F881FDAF7880FEA
:100370009695879597F9089597F99F6780E870E0BB
:1003800060E008959FEF80EC089500240A9416160B
:10039000170618060906089500240A941216130673
:1003A000140605060895092E0394000C11F4882301
:1003B00052F0BB0F40F4BF2B11F460FF04C06F5F1D
:1003C0007F4F8F4F9F4F089557FD9058440F551FF3
:1003D00059F05F3F71F04795880F97FB991F61F0C7
:1003E0009F3F79F087950895121613061406551F3E
:1003F000F2CF4695F1DF08C0161617061806991FAA
:10040000F1CF86957105610508940895E894BB279E
:0E04100066277727CB0197F90895F894FFCF60
:00000001FF
